:04000000CFEF02F04C
:1000080081B202D0299001D0298029A007D0010E01
:10001800155E000E165A175A185A06D0010E1526E4
:0C002800000E162217221822F29211007E
:100034000B6A0A6A096A086A0E6A033408360450AD
:10004400085E0550D8A0053C095E0650D8A0063CC1
:100054000A5E0750D8A0073C0B5EE86AD8A0010EE0
:100064000E5E0336070E0C6E0334083609360A3664
:100074000B360E36045003A012D0085E0550D8A0EB
:10008400053C095E0650D8A0063C0A5E0750D8A07D
:10009400073C0B5EE86AD8A0010E0E5E11D008265C
:1000A4000550D8B0053C09260650D8B0063C0A26AF
:1000B4000750D8B0073C0B26E86AD8B0010E0E26CC
:1000C40003360C2ED1D70234083609360A360B36DD
:1000D4000E36045003A012D0085E0550D8A0053C8B
:1000E400095E0650D8A0063C0A5E0750D8A0073C1B
:1000F4000B5EE86AD8A0010E0E5E11D008260550EA
:10010400D8B0053C09260650D8B0063C0A2607504C
:10011400D8B0073C0B26E86AD8B0010E0E2602368A
:10012400070E0C6E0234083609360A360B360E36C4
:10013400045002A012D0085E0550D8A0053C095E08
:100144000650D8A0063C0A5E0750D8A0073C0B5EB8
:10015400E86AD8A0010E0E5E11D008260550D8B06A
:10016400053C09260650D8B0063C0A260750D8B0EC
:10017400073C0B26E86AD8B0010E0E2602360C2E78
:10018400D1D70134083609360A360B360E360450F8
:1001940002A012D0085E0550D8A0053C095E0650A6
:1001A400D8A0063C0A5E0750D8A0073C0B5EE86A5C
:1001B400D8A0010E0E5E11D008260550D8B0053C1B
:1001C40009260650D8B0063C0A260750D8B0073C8A
:1001D4000B26E86AD8B0010E0E260136070E0C6E07
:1001E4000134083609360A360B360E36045001A09F
:1001F40012D0085E0550D8A0053C095E0650D8A070
:10020400063C0A5E0750D8A0073C0B5EE86AD8A0FB
:10021400010E0E5E11D008260550D8B0053C092603
:100224000650D8B0063C0A260750D8B0073C0B2627
:10023400E86AD8B0010E0E2601360C2ED1D7003450
:10024400083609360A360B360E36045001A012D091
:10025400085E0550D8A0053C095E0650D8A0063CAF
:100264000A5E0750D8A0073C0B5EE86AD8A0010ECE
:100274000E5E11D008260550D8B0053C092606505C
:10028400D8B0063C0A260750D8B0073C0B26E86ACB
:10029400D8B0010E0E260036070E0C6E0034083658
:1002A40009360A360B360E36045000A012D0085E0A
:1002B4000550D8A0053C095E0650D8A0063C0A5E4D
:1002C4000750D8A0073C0B5EE86AD8A0010E0E5E6A
:1002D40011D008260550D8B0053C09260650D8B0E0
:1002E400063C0A260750D8B0073C0B26E86AD8B06B
:1002F400010E0E2600360C2ED1D700B00ED00450BD
:1003040008260550D8B0053C09260650D8B0063C4E
:0C0314000A260750D8B0073C0B26120048
:10032000546A556A000E555C02E10A0E545C0BE2F9
:1003300054505224E16E55505320E26E200EE66E6A
:10034000544A552AEFD754505224E16E5550532049
:10035000E26EE66A010E545E000E555A5450522465
:10036000566E55505320576E0A0E046E000E056EE1
:10037000066E076E4EC000F04FC001F050C002F094
:1003800051C003F057DE08C000F009C001F00AC0F8
:1003900002F00BC003F0300E002656C0E1FF57C03C
:1003A000E2FF00C0E6FF0A0E046E000E056E066E48
:1003B000076E4EC000F04FC001F050C002F051C0B7
:1003C00003F038DE00C04EF001C04FF002C050F024
:1003D00003C051F0000E046E031808E10450021827
:1003E00005E10450011802E10050000A01E105D0C6
:0C03F000010E545E000E555AB1D71200E9
:0E03FC00ACB202D00000FCD74EC0ADFF120024
:10040A00436A40C0E9FF41C0EAFFEECF42F04250E2
:10041A00000A0DE042C04EF0ECDF432A435040246C
:10042A00E96E000E4120EA6EEECF42F0F0D71200DC
:10043A000900F5CFE6FF0006FBE10106F9E112002B
:10044A00FC0E216E030E226E4E0E236E000E246EDB
:10045A00FF0E256EFF0E266E000E276E000E286E0A
:10046A00FF0E196EFF0E1A6E000E1B6E000E1C6E2A
:10047A00FF0E1D6EFF0E1E6E000E1F6E000E206E0A
:10048A00AC8A900EAB6E948E949C9EAA03D0AECF8B
:06049A0000F0FBD7120088
:1004A000486A496A40C04AF041C04BF042C04CF033
:1004B00043C04DF0800E4318006E800E005C08E1D2
:1004C000000E425C05E1000E415C02E1000E405C62
:1004D00010E2010E486E000E496E4A6A4B6A4C6A81
:1004E0004D6A40504A5E41504B5A42504C5A43501C
:1004F0004D5A4AC04EF04BC04FF04CC050F04DC06A
:1005000051F044C052F045C053F00ADF0B0E466E66
:10051000000E476E000E006E4750005C02E1465030
:10052000000819E246504424E16E47504520E26E2F
:10053000010E465C006E000E4758016E00504424C8
:10054000E96E01504520EA6EEECFE6FF010E465EF1
:10055000000E475ADFD744C0E1FF45C0E2FF200E3E
:10056000E66E485049101AE0466A476A46504424ED
:10057000E96E47504520EA6EEE50200A03E1464AF4
:10058000472AF4D7010E465E000E475A46504424CF
:0E059000E16E47504520E26E2D0EE66E120021
:10059E00156A166A176A186A926AFF0E936E806A57
:1005AE000F013991399393809382F29CF29CF28ED3
:1005BE00F28EF288F28CF292AC8AAB8EAC9CAB9C33
:1005CE00AC98AB88AC84190EAF6EB886060EB06EC2
:1005DE00820EAF6EAC8432DF090E0B6E1E0E0C6EE9
:1005EE00E40E0D6E0D2EFED70C2EFCD70B2EFAD769
:1005FE00000015C040F016C041F017C042F018C000
:10060E0043F02A0E446E000E456E43DF2A0E406EF6
:10061E00000E416EF3DE0A0E4E6EE9DEEAD7FFD70C
:020000040030CA
:0D000100121F3CFFBF81FF0FC00FE00F403A
:00000001FF
